:020000040000FA
:06000000CDEF01F012003B
:06000800AAEF01F0120056
:06002A000100C603000006
:080030008A000000010000003D
:08003800D9CFE6FFE1CFD9FFAB
:10004000040EE126DE6ADD6A020EDB6A030EDB6A5D
:100050000A0E106E116AFD0EDBCF08F0FE0EDBCF2C
:1000600009F010C00DF011C00EF053EC01F008C003
:10007000DEFF09C0DDFFFD0EDBCF10F0FE0EDBCF93
:1000800011F00A0E0D6E0E6A10C008F011C009F0D2
:1000900053EC01F004C010F005C011F0020E10C0C6
:1000A000DBFF030E11C0DBFFDECFE6FFDDCFE6FF97
:1000B00025D8E552E5528B6E8C86010EE66EBDECBE
:1000C00001F0E5528C96020EDBCFE6FF030EDBCF8C
:1000D000E6FF14D8E552E5528B6E8C88010EE66E71
:1000E000BDEC01F0E5528C98040EE15C02E2E16A9D
:1000F000E552E16EE552E7CFD9FF1200D9CFE6FF16
:10010000E1CFD9FF0B0EE126DE523F0EDD6E060E6B
:10011000F36E020EF3CFDBFF5B0EF36E030EF3CF35
:10012000DBFF4F0EF36E040EF3CFDBFF660EF36EB4
:10013000050EF3CFDBFF6D0EF36E060EF3CFDBFF84
:100140007D0EF36E070EF3CFDBFFF36E080EF3CFD9
:10015000DBFF7F0EF36E090EF3CFDBFF6F0EF36E46
:100160000A0EF3CFDBFFD950010F106EDACF11F07A
:10017000FD0EDB501024E96EFE0EDB501120EA6EFE
:10018000EFCFDFFFDF50106E0B0EE15C03E200D01B
:10019000E16AE552E16E1050E552E7CFD9FF120057
:1001A0002A0EF66E000EF76E000EF86E00010900C2
:1001B000F550856F0900F550866F03E1856701D022
:1001C0003DD00900F550806F0900F550816F09009E
:1001D000F550826F09000900F550E96E0900F550ED
:1001E000EA6E090009000900F550836F0900F55017
:1001F000846F09000900F6CF87F0F7CF88F0F8CFB9
:1002000089F080C0F6FF81C0F7FF82C0F8FF0001CF
:10021000835302E1845307E00900F550EE6E830733
:10022000F8E28407F9D787C0F6FF88C0F7FF89C0D6
:0E023000F8FF00018507000E865BBFD71200A5
:02023E00D9CF16
:10024000E6FFE1CFD9FF020EE126DE6ADD6A79EC36
:1002500001F082EC01F090EC01F0DECFE6FFDDCFA3
:10026000E6FF1CEC00F0E552E55200018A5110E077
:10027000010EDE26000EDD22D9CFE9FFDACFEAFF3C
:10028000640EEE1801E1ED5002E1DE6ADD6A8A6B70
:10029000E4D7020EE15C02E2E16AE552E16EE5526A
:0602A000E7CFD9FF1200B8
:0A02A600006A0EAE5CEF01F00D6C73
:1002B0000E1EE86A0E22001E09AE64EF01F0086C03
:1002C000091EE86A0922001E94EC01F009BE74EFD1
:1002D00001F000AE000C086C091EE86A0922046CEB
:1002E000051EE86A0522000C00BE6BEF01F00188D4
:0202F000FF0C01
:0E02F200959695988C968C9895948C84946A29
:100300008B6A1200F294D59ED59CD59AD596D58449
:10031000D592D580C20ED76EF70ED66ED58E12004E
:08032000F28CF28EF28A120049
:08032800056A046A100EE76E7D
:10033000D89008360936043605360D50045C0E5048
:10034000055805E30D50045E0E50055A082AE72EA5
:04035000F0D71200D0
:0C035400DACFE4FFE2CFDAFFE652F2A4B9
:1003600008D0F2940001010E8A6FC20ED76EF70E0C
:0A037000D66EE552E5CFDAFF11006A
:06037A00FF0EE350126EBD
:10038000480E01D04C0EE76EE72EFED7E76AE72E47
:0A039000FED7122EF7D7000012006E
:06039A0015EE00F025EE57
:1003A00000F0F86A019CD0EC00F0E2EC01F01FECE8
:0603B00001F0FBD7120072
:0A03B60000EE00F00F0EEE6AEA629E
:0403C000FDD7120053
:0203C400120025
:0103C6000036
:020000040030CA
:0100010002FC
:010003001EDE
:010006008178
:00000001FF
